{
  "_format": "hh-sol-artifact-1",
  "contractName": "Mariage",
  "sourceName": "contracts/Mariage.sol",
  "abi": [
    {
      "inputs": [
        {
          "internalType": "address",
          "name": "_homme",
          "type": "address"
        },
        {
          "internalType": "address",
          "name": "_femme",
          "type": "address"
        }
      ],
      "stateMutability": "nonpayable",
      "type": "constructor"
    },
    {
      "anonymous": false,
      "inputs": [
        {
          "indexed": false,
          "internalType": "address",
          "name": "personneDecedee",
          "type": "address"
        }
      ],
      "name": "DecesDeclare",
      "type": "event"
    },
    {
      "anonymous": false,
      "inputs": [
        {
          "indexed": false,
          "internalType": "address",
          "name": "homme",
          "type": "address"
        },
        {
          "indexed": false,
          "internalType": "address",
          "name": "femme",
          "type": "address"
        }
      ],
      "name": "DivorceDeclare",
      "type": "event"
    },
    {
      "anonymous": false,
      "inputs": [
        {
          "indexed": false,
          "internalType": "address",
          "name": "enfant",
          "type": "address"
        },
        {
          "indexed": false,
          "internalType": "address",
          "name": "parent1",
          "type": "address"
        },
        {
          "indexed": false,
          "internalType": "address",
          "name": "parent2",
          "type": "address"
        }
      ],
      "name": "EnfantAjoute",
      "type": "event"
    },
    {
      "inputs": [
        {
          "internalType": "address",
          "name": "_enfant",
          "type": "address"
        }
      ],
      "name": "ajouterEnfant",
      "outputs": [],
      "stateMutability": "nonpayable",
      "type": "function"
    },
    {
      "inputs": [
        {
          "internalType": "address",
          "name": "_personne",
          "type": "address"
        }
      ],
      "name": "declarerDeces",
      "outputs": [],
      "stateMutability": "nonpayable",
      "type": "function"
    },
    {
      "inputs": [],
      "name": "declarerDivorce",
      "outputs": [],
      "stateMutability": "nonpayable",
      "type": "function"
    },
    {
      "inputs": [
        {
          "internalType": "address",
          "name": "",
          "type": "address"
        }
      ],
      "name": "estDecede",
      "outputs": [
        {
          "internalType": "bool",
          "name": "",
          "type": "bool"
        }
      ],
      "stateMutability": "view",
      "type": "function"
    },
    {
      "inputs": [
        {
          "internalType": "address",
          "name": "",
          "type": "address"
        }
      ],
      "name": "estDivorce",
      "outputs": [
        {
          "internalType": "bool",
          "name": "",
          "type": "bool"
        }
      ],
      "stateMutability": "view",
      "type": "function"
    },
    {
      "inputs": [
        {
          "internalType": "address",
          "name": "",
          "type": "address"
        }
      ],
      "name": "estParent",
      "outputs": [
        {
          "internalType": "bool",
          "name": "",
          "type": "bool"
        }
      ],
      "stateMutability": "view",
      "type": "function"
    },
    {
      "inputs": [],
      "name": "femme",
      "outputs": [
        {
          "internalType": "address",
          "name": "",
          "type": "address"
        }
      ],
      "stateMutability": "view",
      "type": "function"
    },
    {
      "inputs": [],
      "name": "getFemme",
      "outputs": [
        {
          "internalType": "address",
          "name": "",
          "type": "address"
        }
      ],
      "stateMutability": "view",
      "type": "function"
    },
    {
      "inputs": [],
      "name": "getHomme",
      "outputs": [
        {
          "internalType": "address",
          "name": "",
          "type": "address"
        }
      ],
      "stateMutability": "view",
      "type": "function"
    },
    {
      "inputs": [],
      "name": "homme",
      "outputs": [
        {
          "internalType": "address",
          "name": "",
          "type": "address"
        }
      ],
      "stateMutability": "view",
      "type": "function"
    },
    {
      "inputs": [
        {
          "internalType": "address",
          "name": "_conjoint",
          "type": "address"
        }
      ],
      "name": "leConjoint",
      "outputs": [
        {
          "internalType": "address",
          "name": "",
          "type": "address"
        }
      ],
      "stateMutability": "view",
      "type": "function"
    }
  ],
  "bytecode": "0x60806040523480156200001157600080fd5b50604051620011383803806200113883398181016040528101906200003791906200012a565b816000806101000a81548173ffffffffffffffffffffffffffffffffffffffff021916908373ffffffffffffffffffffffffffffffffffffffff16021790555080600160006101000a81548173ffffffffffffffffffffffffffffffffffffffff021916908373ffffffffffffffffffffffffffffffffffffffff160217905550505062000171565b600080fd5b600073ffffffffffffffffffffffffffffffffffffffff82169050919050565b6000620000f282620000c5565b9050919050565b6200010481620000e5565b81146200011057600080fd5b50565b6000815190506200012481620000f9565b92915050565b60008060408385031215620001445762000143620000c0565b5b6000620001548582860162000113565b9250506020620001678582860162000113565b9150509250929050565b610fb780620001816000396000f3fe608060405234801561001057600080fd5b50600436106100a95760003560e01c80634ebd192c116100715780634ebd192c1461014057806351dc0894146101705780638a26877f1461018c578063c4c1863f146101bc578063f4443beb146101da578063f4c07151146101f8576100a9565b806303a361d0146100ae5780630686deb4146100de5780630aae3b2f146100e85780630d2339f5146101065780632429b3e814610124575b600080fd5b6100c860048036038101906100c39190610c1b565b610228565b6040516100d59190610c63565b60405180910390f35b6100e6610248565b005b6100f061052b565b6040516100fd9190610c8d565b60405180910390f35b61010e610551565b60405161011b9190610c8d565b60405180910390f35b61013e60048036038101906101399190610c1b565b610575565b005b61015a60048036038101906101559190610c1b565b6107d3565b6040516101679190610c63565b60405180910390f35b61018a60048036038101906101859190610c1b565b6107f3565b005b6101a660048036038101906101a19190610c1b565b610a3e565b6040516101b39190610c63565b60405180910390f35b6101c4610a5e565b6040516101d19190610c8d565b60405180910390f35b6101e2610a88565b6040516101ef9190610c8d565b60405180910390f35b610212600480360381019061020d9190610c1b565b610ab1565b60405161021f9190610c8d565b60405180910390f35b60046020528060005260406000206000915054906101000a900460ff1681565b60008054906101000a900473ffffffffffffffffffffffffffffffffffffffff1673ffffffffffffffffffffffffffffffffffffffff163373ffffffffffffffffffffffffffffffffffffffff1614806102ef5750600160009054906101000a900473ffffffffffffffffffffffffffffffffffffffff1673ffffffffffffffffffffffffffffffffffffffff163373ffffffffffffffffffffffffffffffffffffffff16145b61032e576040517f08c379a000000000000000000000000000000000000000000000000000000000815260040161032590610d05565b60405180910390fd5b600460003373ffffffffffffffffffffffffffffffffffffffff1673ffffffffffffffffffffffffffffffffffffffff16815260200190815260200160002060009054906101000a900460ff16156103bb576040517f08c379a00000000000000000000000000000000000000000000000000000000081526004016103b290610d71565b60405180910390fd5b6001600460008060009054906101000a900473ffffffffffffffffffffffffffffffffffffffff1673ffffffffffffffffffffffffffffffffffffffff1673ffffffffffffffffffffffffffffffffffffffff16815260200190815260200160002060006101000a81548160ff021916908315150217905550600160046000600160009054906101000a900473ffffffffffffffffffffffffffffffffffffffff1673ffffffffffffffffffffffffffffffffffffffff1673ffffffffffffffffffffffffffffffffffffffff16815260200190815260200160002060006101000a81548160ff0219169083151502179055507f1e5551fea0b6213c02b8bff0ed7574c892a60653ea0731569b6e20ff46f040f960008054906101000a900473ffffffffffffffffffffffffffffffffffffffff16600160009054906101000a900473ffffffffffffffffffffffffffffffffffffffff16604051610521929190610d91565b60405180910390a1565b600160009054906101000a900473ffffffffffffffffffffffffffffffffffffffff1681565b60008054906101000a900473ffffffffffffffffffffffffffffffffffffffff1681565b60008054906101000a900473ffffffffffffffffffffffffffffffffffffffff1673ffffffffffffffffffffffffffffffffffffffff163373ffffffffffffffffffffffffffffffffffffffff16148061061c5750600160009054906101000a900473ffffffffffffffffffffffffffffffffffffffff1673ffffffffffffffffffffffffffffffffffffffff163373ffffffffffffffffffffffffffffffffffffffff16145b61065b576040517f08c379a000000000000000000000000000000000000000000000000000000000815260040161065290610d05565b60405180910390fd5b60008054906101000a900473ffffffffffffffffffffffffffffffffffffffff1673ffffffffffffffffffffffffffffffffffffffff168173ffffffffffffffffffffffffffffffffffffffff1614806107025750600160009054906101000a900473ffffffffffffffffffffffffffffffffffffffff1673ffffffffffffffffffffffffffffffffffffffff168173ffffffffffffffffffffffffffffffffffffffff16145b610741576040517f08c379a000000000000000000000000000000000000000000000000000000000815260040161073890610e2c565b60405180910390fd5b6001600360008373ffffffffffffffffffffffffffffffffffffffff1673ffffffffffffffffffffffffffffffffffffffff16815260200190815260200160002060006101000a81548160ff0219169083151502179055507f0193cb395b7fbc4a215bbb5fbb874ed434ec349fe43b629c3ebccfb65f306ae3816040516107c89190610c8d565b60405180910390a150565b60026020528060005260406000206000915054906101000a900460ff1681565b60008054906101000a900473ffffffffffffffffffffffffffffffffffffffff1673ffffffffffffffffffffffffffffffffffffffff163373ffffffffffffffffffffffffffffffffffffffff16148061089a5750600160009054906101000a900473ffffffffffffffffffffffffffffffffffffffff1673ffffffffffffffffffffffffffffffffffffffff163373ffffffffffffffffffffffffffffffffffffffff16145b6108d9576040517f08c379a00000000000000000000000000000000000000000000000000000000081526004016108d090610e98565b60405180910390fd5b600460003373ffffffffffffffffffffffffffffffffffffffff1673ffffffffffffffffffffffffffffffffffffffff16815260200190815260200160002060009054906101000a900460ff1615610966576040517f08c379a000000000000000000000000000000000000000000000000000000000815260040161095d90610f2a565b60405180910390fd5b6001600260008373ffffffffffffffffffffffffffffffffffffffff1673ffffffffffffffffffffffffffffffffffffffff16815260200190815260200160002060006101000a81548160ff0219169083151502179055507f818dacbe67ba9beec35f6e535a939267f6f402fc18183dadd0a63fa5d588904c8160008054906101000a900473ffffffffffffffffffffffffffffffffffffffff16600160009054906101000a900473ffffffffffffffffffffffffffffffffffffffff16604051610a3393929190610f4a565b60405180910390a150565b60036020528060005260406000206000915054906101000a900460ff1681565b6000600160009054906101000a900473ffffffffffffffffffffffffffffffffffffffff16905090565b60008060009054906101000a900473ffffffffffffffffffffffffffffffffffffffff16905090565b60008060009054906101000a900473ffffffffffffffffffffffffffffffffffffffff1673ffffffffffffffffffffffffffffffffffffffff168273ffffffffffffffffffffffffffffffffffffffff1603610b3157600160009054906101000a900473ffffffffffffffffffffffffffffffffffffffff169050610bb3565b600160009054906101000a900473ffffffffffffffffffffffffffffffffffffffff1673ffffffffffffffffffffffffffffffffffffffff168273ffffffffffffffffffffffffffffffffffffffff1603610bae5760008054906101000a900473ffffffffffffffffffffffffffffffffffffffff169050610bb3565b600090505b919050565b600080fd5b600073ffffffffffffffffffffffffffffffffffffffff82169050919050565b6000610be882610bbd565b9050919050565b610bf881610bdd565b8114610c0357600080fd5b50565b600081359050610c1581610bef565b92915050565b600060208284031215610c3157610c30610bb8565b5b6000610c3f84828501610c06565b91505092915050565b60008115159050919050565b610c5d81610c48565b82525050565b6000602082019050610c786000830184610c54565b92915050565b610c8781610bdd565b82525050565b6000602082019050610ca26000830184610c7e565b92915050565b600082825260208201905092915050565b7f566f757320646576657a206574726520756e20636f6e6a6f696e740000000000600082015250565b6000610cef601b83610ca8565b9150610cfa82610cb9565b602082019050919050565b60006020820190508181036000830152610d1e81610ce2565b9050919050565b7f566f757320657465732064656a61206469766f72636500000000000000000000600082015250565b6000610d5b601683610ca8565b9150610d6682610d25565b602082019050919050565b60006020820190508181036000830152610d8a81610d4e565b9050919050565b6000604082019050610da66000830185610c7e565b610db36020830184610c7e565b9392505050565b7f5365756c20756e20636f6e6a6f696e742070657574206465636c61726572207560008201527f6e20646563657300000000000000000000000000000000000000000000000000602082015250565b6000610e16602783610ca8565b9150610e2182610dba565b604082019050919050565b60006020820190508181036000830152610e4581610e09565b9050919050565b7f566f757320646576657a206574726520756e20706172656e7400000000000000600082015250565b6000610e82601983610ca8565b9150610e8d82610e4c565b602082019050919050565b60006020820190508181036000830152610eb181610e75565b9050919050565b7f566f75732065746573206469766f7263652c20696d706f737369626c6520642760008201527f616a6f7574657220756e20656e66616e74000000000000000000000000000000602082015250565b6000610f14603183610ca8565b9150610f1f82610eb8565b604082019050919050565b60006020820190508181036000830152610f4381610f07565b9050919050565b6000606082019050610f5f6000830186610c7e565b610f6c6020830185610c7e565b610f796040830184610c7e565b94935050505056fea2646970667358221220912c236751de31b8825dcf8468088de6a6f447f064d03e1945597a69afb6e80964736f6c63430008180033",
  "linkReferences": {},
  "deployedLinkReferences": {}
}